:100000000C9433010C9454010C9454010C9454013D
:100010000C9454010C9454010C9454010C9454010C
:100020000C9454010C9454010C9454010C945401FC
:100030000C9454010C9454010C9454010C945401EC
:100040000C9454010C9454010C9454010C945401DC
:100050000C9454010C9454010C9454010C946102BE
:100060000C9454010C9454010C9454010C945401BC
:100070000C9454010C9454010C9454010C945401AC
:100080000C9454010C9454010C9454010C9454019C
:100090000C9454010C9454010C9454010C9454018C
:1000A0000C9454010C9454010C9454010C9454017C
:1000B0000C9454010C9454010C9454010C9454016C
:1000C0000C9454010C9454010C9454010C9454015C
:1000D0000C9454010C9454010C9454010C9454014C
:1000E0000C9454016D01700163016701A701740153
:1000F00078017E01820186018C0190019401A701A3
:100100009A019E01A2010C9494010C9467010C9435
:100110007E010C9482010C949A010C946D010C9454
:10012000A2010C9463010C948C010C9486010C9434
:1001300070010C9474010C9490010C949E010C9429
:10014000A7010C94780100002100240027002A0058
:100150002D003000330001010000040107010A01F5
:1001600000002200250028002B002E003100340062
:1001700002010000050108010B010000200023001E
:10018000260029002C002F0032000001000003018E
:10019000060109010505050507050808080802020A
:1001A00002020A0A08080404040401010101010111
:1001B00001010303030303030303040707070C0CF4
:1001C0000C0C0C0C0C0C02020202060606060606BB
:1001D00006060B0B0B0B0B0B0B0B01021020200860
:1001E0000810204010204080020102010804020192
:1001F0000102040810204080804020100804020101
:100200008004020180402010080402010804020159
:1002100001020408102040800102040810204080E0
:100220000000090A02080B0C0D0706030401000078
:1002300000000000000000000000000000000000BE
:1002400000000000000000000000000011100F007E
:10025000000000000000000000000000000000009E
:1002600000000000000011241FBECFEFD1E2DEBF6E
:10027000CDBF00E00CBF12E0A0E0B2E0E0E1F8E0AA
:1002800000E00BBF02C007900D92AC30B107D9F768
:1002900022E0ACE0B2E001C01D92A032B207E1F76B
:1002A0000E94AB020C94FB030C94000090E0FC0154
:1002B0003197E131F10508F04AC08827EE58FF4F29
:1002C0008F4F0C94FE03809180008F7703C0809144
:1002D00080008F7D80938000089584B58F7702C061
:1002E00084B58F7D84BD08958091B0008F7703C061
:1002F0008091B0008F7D8093B00008958091900030
:100300008F7707C0809190008F7D03C0809190000F
:10031000877F8093900008958091A0008F7707C019
:100320008091A0008F7D03C08091A000877F809383
:10033000A0000895809120018F7707C0809120014F
:100340008F7D03C080912001877F809320010895D5
:10035000CF93DF93282F30E0F901E05EFD4F8491C9
:10036000F901E652FE4FD491F901EC56FE4FC491CB
:10037000CC2391F081110E945601EC2FF0E0EE0F9A
:10038000FF1FE658FE4FA591B491EC91ED2381E05B
:1003900090E021F480E002C080E090E0DF91CF9116
:1003A00008951F93CF93DF93282F30E0F901E05E8B
:1003B000FD4F8491F901E652FE4FD491F901EC56BC
:1003C000FE4FC491CC23C1F0162F81110E9456011B
:1003D000EC2FF0E0EE0FFF1FE05AFE4FA591B49115
:1003E0009FB7F894111104C08C91D095D82302C006
:1003F000EC91DE2BDC939FBFDF91CF911F9108958D
:10040000CF93DF9390E0FC01E652FE4F2491FC0174
:10041000EC56FE4F8491882361F190E0880F991F7C
:10042000FC01EA5BFE4FC591D491FC01E05AFE4FFE
:10043000A591B491611109C09FB7F8948881209566
:1004400082238883EC912E230BC0623061F49FB726
:10045000F8948881322F309583238883EC912E2B5A
:100460002C939FBF06C08FB7F894E8812E2B28836A
:100470008FBFDF91CF9108953FB7F89480911C0210
:1004800090911D02A0911E02B0911F0226B5A89B5B
:1004900005C02F3F19F00196A11DB11D3FBFBA2F16
:1004A000A92F982F8827820F911DA11DB11DBC0176
:1004B000CD0142E0660F771F881F991F4A95D1F73B
:1004C00008951F920F920FB60F9211242F933F930E
:1004D0008F939F93AF93BF938091180290911902CD
:1004E000A0911A02B0911B023091170223E0230F52
:1004F0002D3720F40196A11DB11D05C026E8230F5C
:100500000296A11DB11D20931702809318029093AB
:100510001902A0931A02B0931B0280911C029091C1
:100520001D02A0911E02B0911F020196A11DB11DD6
:1005300080931C0290931D02A0931E02B0931F0291
:10054000BF91AF919F918F913F912F910F900FBECF
:100550000F901F901895789484B5826084BD84B5FF
:10056000816084BD85B5826085BD85B5816085BDAE
:1005700080916E00816080936E0010928100809166
:1005800081008260809381008091810081608093EE
:100590008100809180008160809380008091B10013
:1005A00084608093B1008091B00081608093B0003E
:1005B0008091910082608093910080919100816090
:1005C0008093910080919000816080939000809151
:1005D000A10082608093A1008091A100816080933E
:1005E000A1008091A00081608093A00080912101F2
:1005F000826080932101809121018160809321019B
:100600008091200181608093200180917A00846034
:1006100080937A0080917A00826080937A00809142
:100620007A00816080937A0080917A00806880935C
:100630007A001092C100C1E0D2E01881229661E0F8
:10064000812F0E94000260E0812F0E94D10182E090
:10065000CB30D80791F762E086E00E94000262E0AA
:1006600087E00E94000262E085E00E94000286E0CE
:100670000E94A801EC01909316028093150287E076
:100680000E94A8016C01909314028093130285E0EC
:100690000E94A8018C019093120280931102CD2B2D
:1006A000B1F4C1E0D2E0F88022968F2D0E94A8011B
:1006B000892B29F461E08F2D0E94D10108C060E0F0
:1006C0008F2D0E94D101E2E0CB30DE0761F7CD280B
:1006D000B1F4C1E0D2E0F88022968F2D0E94A801EB
:1006E000019729F460E08F2D0E94D10108C061E0DC
:1006F0008F2D0E94D101F2E0CB30DF0761F7012B93
:1007000049F00E943C02EB019AE0C92ED12CE12C69
:10071000F12C40C0809100028823E9F01092000281
:100720008CE0E82E82E0F82EC1E0D2E0188122961B
:10073000812F0E94A80121E0892B09F420E0F70114
:1007400021937F0160E0812F0E94D101F2E0CB3044
:10075000DF0761F7D6CF81E0809300020CE012E062
:10076000C1E0D2E0F80161918F01888122960E9458
:10077000D101F2E0CB30DF07A9F7C3CFE1E0CE1A19
:10078000D108E108F108C851DC4FC114D104E104DB
:10079000F10419F10E943C026C1B7D0B683E734012
:1007A000C8F3ECCF8091130290911402892BE1F4ED
:1007B00086E00E94A801909316028093150287E0BC
:1007C0000E94A801909314028093130285E00E9476
:1007D000A8019093120280931102809115029091CA
:1007E0001602892BF9F6E4CF809111029091120242
:1007F000892BF1F23CCFF8940C940604EE0FFF1F06
:10080000881F8BBF0790F691E02D1994F894FFCFC5
:0C0810000109000A000B000C000D0000A4
:00000001FF
