:100000000C9481000C94B2000C94B2000C94B200D9
:100010000C94B2000C94B2000C94B2000C94B20098
:100020000C94B2000C94B2000C94B2000C94B20088
:100030000C94B2000C94B2000C94B2000C94B20078
:100040000C94B2000C94B2000C94B2000C94B20068
:100050000C94B2000C94B2000C94B2000C94CA033D
:100060000C94B2000C9497030C94BF020C94B20051
:100070000C94B2000C94B2000C94B2000C94B20038
:100080000C94B2000C94B2000C94B2000C94B20028
:100090000C9464030C9480020C94B2000C94B20093
:1000A0000C94B2000C94B2000C94B2000C94B20008
:1000B0000C94B2000C94B2000C94B2000C94B200F8
:1000C0000C94B2000C94B2000C94B2000C94310366
:1000D0000C9441020C94B2000C94FE020C940202A7
:1000E0000C94B2000C9409010C9450010C9434014E
:1000F0000C947A010C9414040C94B5000C94140123
:10010000140411241FBECFEFD1E2DEBFCDBF00E04B
:100110000CBF12E0A0E0B2E0E8EAFFE000E00BBFB5
:1001200002C007900D92A633B107D9F724E0A6E3E9
:10013000B2E001C01D92A73EB207E1F710E0C1E8AE
:10014000D0E000E006C021970109802FFE010E9447
:10015000BB07C038D10780E00807A9F70E94E60472
:100160000C94DE060C94000008950F931F93CF9318
:10017000DF93FC01A685B7858D01005C1F4FE80168
:100180008881998101968F739927AD014E5B5F4FEE
:10019000EA012881398128173907D1F3E80128813C
:1001A0003981A20FB31F6C93A685B785A05CBF4FA2
:1001B00011969C938E93A689B7892C9181E090E04B
:1001C000078C02C0880F991F0A94E2F7822B8C9348
:1001D00081E081A30488F589E02D8081806480839B
:1001E00081E090E0DF91CF911F910F910895CF931F
:1001F000DF936DE085EC94E00E94B500EC016AE0CD
:1002000085EC94E00E94B5008C0F9D1FDF91CF918B
:100210000895FC0181A1882329F0A489B5898C91D6
:1002200086FFFBCF11A20895FC01A485B585FD01D1
:10023000E05CFF4F208131813296808191812817C7
:10024000390779F080819181A80FB91F8C912081A5
:1002500031812F5F3F4F2F7333273183208390E00D
:1002600008958FEF9FEF0895DC011C96ED91FC91AE
:100270001D97DF01A05CBF4F2D913C911197129605
:100280008D919C9111972817390739F08D919C9188
:10029000E80FF91F808190E008958FEF9FEF089598
:1002A000FC0124853585F901E05CFF4F8081918157
:1002B000329620813181821B930B8F739927089589
:1002C000FB01E05CFF4F20813181DB01AE5BBF4F62
:1002D0004D915C912F5F3F4F2F7333274217530788
:1002E00041F040815181DB01A40FB51F8C93318314
:1002F00020830895CF92DF92EF92FF920F931F9386
:10030000CF93DF936C01EB017B01E40EF51E00E05F
:1003100010E0CE15DF0561F06991D601ED91FC91F9
:100320000190F081E02DC6011995080F191FF1CF3A
:10033000C801DF91CF911F910F91FF90EF90DF9057
:10034000CF900895009769F0FC0101900020E9F733
:100350003197AF01481B590BBC0185EC94E00C941C
:100360007A0180E090E008958F929F92AF92BF92C1
:10037000EF92FF921F93CF93DF93CDB7DEB7A19794
:100380000FB6F894DEBF0FBECDBF162F19A27E01A7
:1003900021E2E20EF11C2AE0822E912CA12CB12C3C
:1003A000612FA50194010E94E1068AE0289F10199F
:1003B0001124E1E0EE1AF1081A3014F4105D01C0C6
:1003C000195CF7011083122F732FCA01232B242BE2
:1003D000252B31F7C7010E94A2017C010E94F70082
:1003E0008E0D9F1DA1960FB6F894DEBF0FBECDBF38
:1003F000DF91CF911F91FF90EF90BF90AF909F90B2
:100400008F9008951F920F920FB60F9211240BB682
:100410000F922F933F938F939F93EF93FF9320918E
:100420007F02309180028091810290918202281790
:10043000390731F4809131018F7D8093310114C0EF
:10044000E0918102F0918202E15CFD4F2081809178
:1004500081029091820201968F7399279093820274
:100460008093810220933601FF91EF919F918F91AC
:100470003F912F910F900BBE0F900FBE0F901F90CA
:1004800018951F920F920FB60F9211240BB60F9270
:100490002F933F938F939F93EF93FF932091290383
:1004A00030912A0380912B0390912C032817390750
:1004B00031F48091D1008F7D8093D10014C0E09100
:1004C0002B03F0912C03E751FD4F208180912B03EA
:1004D00090912C0301968F73992790932C0380930E
:1004E0002B032093D600FF91EF919F918F913F9125
:1004F0002F910F900BBE0F900FBE0F901F9018956D
:100500001F920F920FB60F9211240BB60F922F93DA
:100510003F938F939F93EF93FF932091D303309159
:10052000D4038091D5039091D6032817390731F46D
:100530008091C9008F7D8093C90014C0E091D503DC
:10054000F091D603ED56FC4F20818091D503909118
:10055000D60301968F7399279093D6038093D50382
:100560002093CE00FF91EF919F918F913F912F911A
:100570000F900BBE0F900FBE0F901F9018951F92FB
:100580000F920FB60F9211240BB60F922F933F9339
:100590008F939F93EF93FF9320917D0430917E047E
:1005A00080917F04909180042817390731F480915D
:1005B000C1008F7D8093C10014C0E0917F04F09151
:1005C0008004E35CFB4F208180917F049091800444
:1005D00001968F7399279093800480937F042093D2
:1005E000C600FF91EF919F918F913F912F910F90B6
:1005F0000BBE0F900FBE0F901F9018951F920F9279
:100600000FB60F9211240BB60F922F933F934F9377
:100610005F936F937F938F939F93AF93BF93EF936A
:10062000FF938091300182FD07C08091360163E81D
:1006300072E00E94600102C080913601FF91EF914B
:10064000BF91AF919F918F917F916F915F914F91EA
:100650003F912F910F900BBE0F900FBE0F901F90E8
:1006600018951F920F920FB60F9211240BB60F928E
:100670002F933F934F935F936F937F938F939F93AA
:10068000AF93BF93EF93FF938091D00082FD07C09B
:100690008091D6006DE273E00E94600102C08091FB
:1006A000D600FF91EF91BF91AF919F918F917F9174
:1006B0006F915F914F913F912F910F900BBE0F90D3
:1006C0000FBE0F901F9018951F920F920FB60F92AA
:1006D00011240BB60F922F933F934F935F936F9319
:1006E0007F938F939F93AF93BF93EF93FF938091EB
:1006F000C80082FD07C08091CE0067ED73E00E94C4
:10070000600102C08091CE00FF91EF91BF91AF9147
:100710009F918F917F916F915F914F913F912F9119
:100720000F900BBE0F900FBE0F901F9018951F9249
:100730000F920FB60F9211240BB60F922F933F9387
:100740004F935F936F937F938F939F93AF93BF93D9
:10075000EF93FF938091C00082FD07C08091C60097
:1007600061E874E00E94600102C08091C600FF91C0
:10077000EF91BF91AF919F918F917F916F915F9119
:100780004F913F912F910F900BBE0F900FBE0F9086
:100790001F9018951F920F920FB60F9211242F934E
:1007A0003F938F939F93AF93BF9380913B02909120
:1007B0003C02A0913D02B0913E0230913A0223E00A
:1007C000230F2D3720F40196A11DB11D05C026E889
:1007D000230F0296A11DB11D20933A0280933B0284
:1007E00090933C02A0933D02B0933E02809136026A
:1007F00090913702A0913802B09139020196A11D63
:10080000B11D8093360290933702A0933802B093C3
:100810003902BF91AF919F918F913F912F910F908E
:100820000FBE0F901F901895CF92DF92EF92FF921C
:10083000E5ECF4E01382128288EEC82E83E0D82E15
:10084000E12CF12CC482D582E682F78264E072E06A
:100850007183608381E894E0958784878DE394E0D9
:100860009787868785EC90E0918B808B84EC90E075
:10087000938B828B80EC90E0958B848B81EC90E065
:10088000978B868B82EC90E0918F808F86EC90E046
:10089000938F828F44E0448F33E0358F27E0268F9B
:1008A00095E0978F81E080A3EBE1F4E01382128260
:1008B000C482D582E682F78271836083A7EDB3E0BC
:1008C000B587A487A3E9B3E0B787A687ADECB0E00E
:1008D000B18BA08BACECB0E0B38BA28BA8ECB0E0FA
:1008E000B58BA48BA9ECB0E0B78BA68BAAECB0E0DB
:1008F000B18FA08FAEECB0E0B38FA28F448F358F55
:10090000268F978F80A3E1E7F3E013821282C482DF
:10091000D582E682F78271836083ADE2B3E0B5876A
:10092000A487A9EEB2E0B787A687A5EDB0E0B18BAA
:10093000A08BA4EDB0E0B38BA28BA0EDB0E0B58BA3
:10094000A48BA1EDB0E0B78BA68BA2EDB0E0B18F88
:10095000A08FA6EDB0E0B38FA28F448F358F268F86
:10096000978F80A3E7ECF2E013821282C482D582D3
:10097000E682F7827183608363E872E0758764873B
:100980006FE372E07787668765E371E0718B608B58
:1009900064E371E0738B628B60E371E0758B648B51
:1009A00061E371E0778B668B62E371E0718F608F3A
:1009B00066E371E0738F628F448F358F268F978F38
:1009C00080A3FF90EF90DF90CF9008952F923F92F9
:1009D0004F925F926F927F928F929F92AF92BF924F
:1009E000CF92DF92EF92FF920F931F93CF93DF93FB
:1009F000CDB7DEB72F970FB6F894DEBF0FBECDBFD1
:100A0000789484B5826084BD84B5816084BD85B5E9
:100A1000826085BD85B5816085BD80916E008160F5
:100A200080936E001092810080918100826080939B
:100A3000810080918100816080938100809180009D
:100A40008160809380008091B10084608093B100C8
:100A50008091B00081608093B000809191008260AD
:100A600080939100809191008160809391008091AA
:100A700090008160809390008091A10082608093BB
:100A8000A1008091A10081608093A1008091A000CD
:100A900081608093A0008091210182608093210178
:100AA00080912101816080932101809120018160EA
:100AB0008093200180917A00846080937A008091F5
:100AC0007A00826080937A0080917A0081608093BE
:100AD0007A0080917A00806880937A001092C10039
:100AE000E091D904F091DA0481E090E09C0100905B
:100AF000E50402C0220F331F0A94E2F72083E0913D
:100B0000D504F091D6041082E091D704F091D80476
:100B10002FEC20831092E604E091DB04F091DC04DA
:100B200040819C010090E10402C0220F331F0A940F
:100B3000E2F7242B2083E091DB04F091DC04408178
:100B40009C010090E20402C0220F331F0A94E2F7D6
:100B5000242B2083E091DB04F091DC0440819C0194
:100B60000090E30402C0220F331F0A94E2F7242B03
:100B70002083E091DB04F091DC0420810090E40408
:100B800002C0880F991F0A94E2F780958223808320
:100B900080E192E00E94A2010E94F70003E0802E13
:100BA000912C81E689831A821B821D82212C312C93
:100BB0001F861E8691E09E831F82188619861A86DC
:100BC0001B861C861D8687E0482E512C612C712CBB
:100BD00040FE26C0A980BA80CB80DD8071010F85E0
:100BE0001E852E813F81488559856A857B858C8548
:100BF0009D850E940307B5EFAB2E14E7B12ECC24E0
:100C0000C394D12CE12CF12C00E010E00E945C0791
:100C10002E833F83488759876A877B878C879D8788
:100C2000A980BA80CB80DD8071010F851E8595017A
:100C3000A601B101C8010E940307E5EFAE2EF4E75B
:100C4000BF2ECC24C394D12CE12CF12C00E010E079
:100C50000E945C0729833A834B835D831B018F8746
:100C60009E87769467945794479481E0881A9108F8
:100C700009F0AECF8E809F8098859E8789858D876D
:100C8000B401892F9D850E94B401B4018E859D8594
:100C90000E94B40119821A82212C312C8FE090E03D
:100CA0009C838B8391E09D831E821F821886198608
:100CB0001A861B861C860FED402E09E6502E612CED
:100CC000712C40FE25C0AD80BE80CF80D884E984E1
:100CD000FA840B851C8594014E855D8569817A8136
:100CE000C1010E940307B5EFAB2E14E7B12ECC244F
:100CF000C394D12CE12CF12C00E010E00E945C07A1
:100D00002D833E834F83588769877A878B879C879B
:100D10005401CE84DD84E980FA8081019401A6012A
:100D2000B701C1010E940307E5EFAE2EF4E7BF2E25
:100D3000CC24C394D12CE12CF12C00E010E00E94D3
:100D40005C0749014E875D8769837A831C0176942D
:100D50006794579447948B819C8101979C838B83E4
:100D6000892B09F0AECF6D817E818F8198850E949D
:100D7000B4018AE292E00E94A2010E94F70085EC91
:100D800094E00E94090180E090E02F960FB6F8945D
:100D9000DEBF0FBECDBFDF91CF911F910F91FF90AE
:100DA000EF90DF90CF90BF90AF909F908F907F900B
:100DB0006F905F904F903F902F900895F8940C940F
:100DC000D207A1E21A2EAA1BBB1BFD010DC0AA1F50
:100DD000BB1FEE1FFF1FA217B307E407F50720F0A4
:100DE000A21BB30BE40BF50B661F771F881F991F1F
:100DF0001A9469F760957095809590959B01AC0168
:100E0000BD01CF010895DF93CF931F930F939A9D58
:100E1000F02D219FF00D8B9DF00D8A9DE02DF10DA1
:100E2000039FF00D029FE00DF11D4E9DE00DF11DA1
:100E30005E9DF00D4F9DF00D7F936F93BF92AF922B
:100E40005F934F93D5010E94C3078B01AC01D7017B
:100E50000E94C307EB01E80FF91FD6010E94530758
:100E60002F913F91D6010E94C307C60FD71FE81FDD
:100E7000F91FAF91BF910E9453072F913F910E949C
:100E8000C307C60FD71FE81FF91FD6010E94C3076B
:100E9000E60FF71F9801BE01CF0111240F911F919A
:100EA000CF91DF9108950E94C307460F571FC81FB7
:100EB000D91F08F431960895689401C0E8948F9280
:100EC0009F92CF93DF930E946A07DF91CF919F900B
:100ED0008F90089588249924F401E401B0E49F934D
:100EE000AA279A158B049C04ED05FE05CF05D007B3
:100EF000A10798F4AD2FDC2FCF2FFE2FE92D982CD2
:100F0000892E982F872F762F652F542F432F322F1E
:100F10002227B85031F7BF9127C01B2EBF91BB27A6
:100F2000220F331F441F551F661F771F881F991FED
:100F3000881C991CEE1FFF1FCC1FDD1FAA1FBB1FA3
:100F40008A149B04EC05FD05CE05DF05A007B1075B
:100F500048F08A189B08EC09FD09CE09DF09A00BAF
:100F6000B10B21601A94E1F62EF49401AF01BE0199
:100F7000CD01000C0895EE0FFF1F881F8BBF079057
:100F8000F691E02D1994A29FB001B39FC001A39FD9
:100F9000700D811D1124911DB29F700D811D1124B2
:080FA000911D0895F894FFCFA4
:100FA80000000000B5007A01500114013401090164
:100FB800426567696E6E696E6720706F776D6F64E2
:100FC8002074657374732E2E2E00446F6E65207422
:060FD80065737473000054
:00000001FF
