:100000000C9481000C94B2000C94B2000C94B200D9
:100010000C94B2000C94B2000C94B2000C94B20098
:100020000C94B2000C94B2000C94B2000C94B20088
:100030000C94B2000C94B2000C94B2000C94B20078
:100040000C94B2000C94B2000C94B2000C94B20068
:100050000C94B2000C94B2000C94B2000C94B50352
:100060000C94B2000C9482030C94AA020C94B2007B
:100070000C94B2000C94B2000C94B2000C94B20038
:100080000C94B2000C94B2000C94B2000C94B20028
:100090000C944F030C946B020C94B2000C94B200BD
:1000A0000C94B2000C94B2000C94B2000C94B20008
:1000B0000C94B2000C94B2000C94B2000C94B200F8
:1000C0000C94B2000C94B2000C94B2000C941C037B
:1000D0000C942C020C94B2000C94E9020C94ED01E7
:1000E0000C94B2000C94FF030C94F7000C94B50030
:1000F0000C9468010C9422010C9402010C943E01B2
:10010000FF0311241FBECFEFD1E2DEBFCDBF00E061
:100110000CBF12E0A0E0B2E0EEE5FBE000E00BBFB8
:1001200002C007900D92AE32B107D9F724E0AEE2DB
:10013000B2E001C01D92AF3DB207E1F710E0C1E8A7
:10014000D0E000E006C021970109802FFE010E9447
:10015000A505C038D10780E00807A9F70E94D1049F
:100160000C94A2050C94000008950F931F93CF9355
:10017000DF93FC01A685B7858D01005C1F4FE80168
:100180008881998101968F739927AD014E5B5F4FEE
:10019000EA012881398128173907D1F3E80128813C
:1001A0003981A20FB31F6C93A685B785A05CBF4FA2
:1001B00011969C938E93A689B7892C9181E090E04B
:1001C000078C02C0880F991F0A94E2F7822B8C9348
:1001D00081E081A30488F589E02D8081806480839B
:1001E00081E090E0DF91CF911F910F910895FC0184
:1001F00081A1882329F0A489B5898C9186FFFBCF42
:1002000011A20895FC01A485B585FD01E05CFF4FB6
:10021000208131813296808191812817390779F0C8
:1002200080819181A80FB91F8C91208131812F5F2E
:100230003F4F2F7333273183208390E008958FEF52
:100240009FEF0895DC011C96ED91FC911D97DF0155
:10025000A05CBF4F2D913C91119712968D919C916E
:1002600011972817390739F08D919C91E80FF91FE4
:10027000808190E008958FEF9FEF0895FC01248521
:100280003585F901E05CFF4F8081918132962081B4
:100290003181821B930B8F7399270895FB01E05CDA
:1002A000FF4F20813181DB01AE5BBF4F4D915C91EF
:1002B0002F5F3F4F2F7333274217530741F0408181
:1002C0005181DB01A40FB51F8C93318320830895E6
:1002D000CF92DF92EF92FF920F931F93CF93DF9312
:1002E0006C01EB017B01E40EF51E00E010E0CE1581
:1002F000DF0561F06991D601ED91FC910190F081EB
:10030000E02DC6011995080F191FF1CFC801DF9123
:10031000CF911F910F91FF90EF90DF90CF900895B4
:10032000009769F0FC0101900020E9F73197AF01D7
:10033000481B590BBC018DEB94E00C94680180E0E4
:1003400090E00895EF92FF920F931F93CF93DF9366
:10035000CDB7DEB7A1970FB6F894DEBF0FBECDBF05
:10036000482F50E060E070E019A2CE0181968A012A
:100370009B013695279517950795E02FEE0F4E1B9D
:1003800001974A3014F4405D01C0495CFC01408390
:10039000B901A801012B022B032B49F70E94900100
:1003A0007C016DE08DEB94E00E94B5008C016AE069
:1003B0008DEB94E00E94B5000E0D1F1D800F911F64
:1003C000A1960FB6F894DEBF0FBECDBFDF91CF91DF
:1003D0001F910F91FF90EF9008951F920F920FB60B
:1003E0000F9211240BB60F922F933F938F939F93ED
:1003F000EF93FF93209177023091780280917902F8
:1004000090917A022817390731F4809131018F7D5C
:100410008093310114C0E0917902F0917A02E95C95
:10042000FD4F20818091790290917A0201968F731D
:10043000992790937A028093790220933601FF9155
:10044000EF919F918F913F912F910F900BBE0F9045
:100450000FBE0F901F9018951F920F920FB60F921C
:1004600011240BB60F922F933F938F939F93EF938B
:10047000FF932091210330912203809123039091D7
:1004800024032817390731F48091D1008F7D8093A0
:10049000D10014C0E0912303F0912403EF51FD4FEC
:1004A0002081809123039091240301968F739927D3
:1004B00090932403809323032093D600FF91EF9120
:1004C0009F918F913F912F910F900BBE0F900FBE78
:1004D0000F901F9018951F920F920FB60F92112434
:1004E0000BB60F922F933F938F939F93EF93FF93AE
:1004F0002091CB033091CC038091CD039091CE031A
:100500002817390731F48091C9008F7D8093C90085
:1005100014C0E091CD03F091CE03E557FC4F20814C
:100520008091CD039091CE0301968F73992790937C
:10053000CE038093CD032093CE00FF91EF919F9146
:100540008F913F912F910F900BBE0F900FBE0F9088
:100550001F9018951F920F920FB60F9211240BB691
:100560000F922F933F938F939F93EF93FF9320913D
:10057000750430917604809177049091780428175F
:10058000390731F48091C1008F7D8093C10014C080
:10059000E0917704F0917804EB5CFB4F208180912F
:1005A00077049091780401968F739927909378043B
:1005B000809377042093C600FF91EF919F918F91D4
:1005C0003F912F910F900BBE0F900FBE0F901F9079
:1005D00018951F920F920FB60F9211240BB60F921F
:1005E0002F933F934F935F936F937F938F939F933B
:1005F000AF93BF93EF93FF938091300182FD07C0CB
:10060000809136016BE772E00E944E0102C080913A
:100610003601FF91EF91BF91AF919F918F917F91A3
:100620006F915F914F913F912F910F900BBE0F9063
:100630000FBE0F901F9018951F920F920FB60F923A
:1006400011240BB60F922F933F934F935F936F93A9
:100650007F938F939F93AF93BF93EF93FF9380917B
:10066000D00082FD07C08091D60065E273E00E9451
:100670004E0102C08091D600FF91EF91BF91AF91E2
:100680009F918F917F916F915F914F913F912F91AA
:100690000F900BBE0F900FBE0F901F9018951F92DA
:1006A0000F920FB60F9211240BB60F922F933F9318
:1006B0004F935F936F937F938F939F93AF93BF936A
:1006C000EF93FF938091C80082FD07C08091CE0018
:1006D0006FEC73E00E944E0102C08091CE00FF914A
:1006E000EF91BF91AF919F918F917F916F915F91AA
:1006F0004F913F912F910F900BBE0F900FBE0F9017
:100700001F9018951F920F920FB60F9211240BB6DF
:100710000F922F933F934F935F936F937F938F939A
:100720009F93AF93BF93EF93FF938091C00082FD9F
:1007300007C08091C60069E774E00E944E0102C0C4
:100740008091C600FF91EF91BF91AF919F918F91E2
:100750007F916F915F914F913F912F910F900BBEC1
:100760000F900FBE0F901F9018951F920F920FB60B
:100770000F9211242F933F938F939F93AF93BF9327
:100780008091330290913402A0913502B0913602EB
:100790003091320223E0230F2D3720F40196A11D62
:1007A000B11D05C026E8230F0296A11DB11D20939F
:1007B00032028093330290933402A0933502B093B7
:1007C000360280912E0290912F02A0913002B091BA
:1007D00031020196A11DB11D80932E0290932F022C
:1007E000A0933002B0933102BF91AF919F918F914E
:1007F0003F912F910F900FBE0F901F901895CF92A1
:10080000DF92EF92FF92EDEBF4E01382128288EE1A
:10081000C82E83E0D82EE12CF12CC482D582E6824A
:10082000F78264E072E07183608389E794E09587E2
:10083000848785E394E09787868785EC90E0918BA9
:10084000808B84EC90E0938B828B80EC90E0958B96
:10085000848B81EC90E0978B868B82EC90E0918F7B
:10086000808F86EC90E0938F828F44E0448F33E05A
:10087000358F27E0268F95E0978F81E080A3E3E115
:10088000F4E013821282C482D582E682F7827183F9
:100890006083AFECB3E0B587A487ABE8B3E0B7877C
:1008A000A687ADECB0E0B18BA08BACECB0E0B38B25
:1008B000A28BA8ECB0E0B58BA48BA9ECB0E0B78B11
:1008C000A68BAAECB0E0B18FA08FAEECB0E0B38FF6
:1008D000A28F448F358F268F978F80A3E9E6F3E0B0
:1008E00013821282C482D582E682F782718360838A
:1008F000A5E2B3E0B587A487A1EEB2E0B787A687EB
:10090000A5EDB0E0B18BA08BA4EDB0E0B38BA28BD2
:10091000A0EDB0E0B58BA48BA1EDB0E0B78BA68BBA
:10092000A2EDB0E0B18FA08FA6EDB0E0B38FA28FA3
:10093000448F358F268F978F80A3EFEBF2E01382E1
:100940001282C482D582E682F782718360836BE76C
:1009500072E07587648767E372E07787668765E38F
:1009600071E0718B608B64E371E0738B628B60E389
:1009700071E0758B648B61E371E0778B668B62E36A
:1009800071E0718F608F66E371E0738F628F448FC7
:10099000358F268F978F80A3FF90EF90DF90CF90B9
:1009A0000895789484B5826084BD84B5816084BDE7
:1009B00085B5826085BD85B5816085BDEEE6F0E0D8
:1009C000808181608083E1E8F0E010828081826034
:1009D0008083808181608083E0E8F0E080818160B5
:1009E0008083E1EBF0E0808184608083E0EBF0E0E5
:1009F000808181608083E1E9F0E080818260808392
:100A0000808181608083E0E9F0E080818160808383
:100A1000E1EAF0E080818260808380818160808370
:100A2000E0EAF0E0808181608083E1E2F1E08081B2
:100A300082608083808181608083E0E2F1E0808158
:100A400081608083EAE7F0E0808184608083808138
:100A500082608083808181608083808180688083E0
:100A60001092C100EDEBF4E0A489B58981E090E03B
:100A70009C0100A002C0220F331F0A94E2F72C93BE
:100A8000A089B1891C92A289B3892FEC2C9311A261
:100A9000A689B7894C919C01048C02C0220F331F98
:100AA0000A94E2F7242B2C93A689B7894C919C01D8
:100AB000058C02C0220F331F0A94E2F7242B2C93DB
:100AC000A689B7894C919C01068C02C0220F331F66
:100AD0000A94E2F7242B2C93A689B7892C91078CD2
:100AE00002C0880F991F0A94E2F7809582238C93A5
:100AF00080E192E00E94900181E30E94A20187E1DF
:100B000092E00E9490018BEF0E94A20186E192E0A8
:100B10000E9490018AEC0E94A2018BE192E00E9467
:100B200090018CE40E94A20181E292E00E94900177
:100B300086E60E94A2018DEB94E00E94F70080E01F
:100B400090E00895F8940C94AD05EE0FFF1F881FF8
:0E0B50008BBF0790F691E02D1994F894FFCF1B
:100B5E0000000000B50068013E0102012201F7000D
:100B6E00414E443A2000584F5220004E4F543A20E6
:0E0B7E00004C6566742073686966743A200046
:00000001FF
