:100000000C9442010C9473010C9473010C947301D1
:100010000C9473010C9473010C9473010C94730190
:100020000C9473010C9473010C9473010C94730180
:100030000C9473010C9473010C9473010C94730170
:100040000C9473010C9473010C9473010C94730160
:100050000C9473010C9473010C9473010C94560569
:100060000C9473010C9423050C944B040C947301B1
:100070000C9473010C9473010C9473010C94730130
:100080000C9473010C9473010C9473010C94730120
:100090000C94F0040C940C040C9473010C947301F4
:1000A0000C9473010C9473010C9473010C94730100
:1000B0000C9473010C9473010C9473010C947301F0
:1000C0000C9473010C9473010C9473010C94BD0493
:1000D0000C94CD030C9473010C948A040C948E033D
:1000E0000C9473016307660759075D079D076A074C
:1000F0006E07740778077C07820786078A079D07C3
:100100009007940798070C9494070C9408020C9499
:1001100013020C946E070C9498070C9479020C94BB
:100120004F020C9486070C946A070C9433020C94CB
:100130009D070C945D070C9466070C94BC010C940D
:100140007C070C94C7050C9459070C9463070C9416
:1001500090070C948A070C9474070C9482070C94F3
:10016000780700002200250028002B002E00310017
:10017000340002010000050108010B01000021000C
:10018000240027002A002D00300033000101000068
:10019000040107010A0100002000230026002900B5
:1001A0002C002F00320000010000030106010901AC
:1001B00005050505070508080808020202020A0AE3
:1001C0000808040404040101010101010101030301
:1001D000030303030303040707070C0C0C0C0C0CAC
:1001E0000C0C0202020206060606060606060B0BA9
:1001F0000B0B0B0B0B0B01021020200808102040EA
:1002000010204080020102010804020101020408DA
:100210001020408080402010080402018004020168
:1002200080402010080402010804020101020408B1
:100230001020408001020408102040800000090ABC
:1002400002080B0C0D07060304010000000000006B
:10025000000000000000000000000000000000009E
:10026000000000000000000011100F00000000005E
:10027000000000000000000000000000000000007E
:100280000000C70511241FBECFEFD1E2DEBFCDBFF6
:1002900000E00CBF12E0A0E0B2E0E0E5F1E100E038
:1002A0000BBF02C007900D92AE31B107D9F724E021
:1002B000AEE1B2E001C01D92AF3CB207E1F711E040
:1002C000C2E4D1E000E006C021970109802FFE01C1
:1002D0000E949E08C134D10780E00807A9F70E9458
:1002E00099060C9479080C940000FC01A489B58946
:1002F00081E090E09C0100A002C0220F331F0A940D
:10030000E2F72C93A089B1891C92A289B3892FECC2
:100310002C9311A2A689B7894C919C01048C02C030
:10032000220F331F0A94E2F7242B2C93A689B78956
:100330004C919C01058C02C0220F331F0A94E2F7F6
:10034000242B2C93A689B7894C919C01068C02C062
:10035000220F331F0A94E2F7242B2C93A689B78926
:100360002C91078C02C0880F991F0A94E2F78095A0
:1003700082238C93089508950F931F93CF93DF9357
:10038000FC01A685B7858D01005C1F4FE8018881BF
:10039000998101968F739927AD014E5B5F4FEA01FA
:1003A0002881398128173907D1F3E801288139815B
:1003B000A20FB31F6C93A685B785A05CBF4F1196A3
:1003C0009C938E93A689B7892C9181E090E0078C4D
:1003D00002C0880F991F0A94E2F7822B8C9381E068
:1003E00081A30488F589E02D80818064808381E089
:1003F00090E0DF91CF911F910F910895682F8DEAC2
:1004000094E00C94BC01682F8BE894E00C94BC0140
:10041000FC0181A1882329F0A489B5898C9186FFEC
:10042000FBCF11A20895FC01A485B585FD01E05C18
:10043000FF4F2081318132968081918128173907C1
:1004400079F080819181A80FB91F8C912081318131
:100450002F5F3F4F2F7333273183208390E0089520
:100460008FEF9FEF0895DC011C96ED91FC911D9795
:10047000DF01A05CBF4F2D913C91119712968D9199
:100480009C9111972817390739F08D919C91E80FAD
:10049000F91F808190E008958FEF9FEF0895FC0190
:1004A00024853585F901E05CFF4F8081918132968A
:1004B00020813181821B930B8F7399270895FB0153
:1004C000E05CFF4F20813181DB01AE5BBF4F4D917E
:1004D0005C912F5F3F4F2F7333274217530741F033
:1004E00040815181DB01A40FB51F8C9331832083A0
:1004F0000895CF92DF92EF92FF920F931F93CF93C5
:10050000DF936C01EB017B01E40EF51E00E010E0CF
:10051000CE15DF0561F06991D601ED91FC91019056
:10052000F081E02DC6011995080F191FF1CFC80100
:10053000DF91CF911F910F91FF90EF90DF90CF90BF
:1005400008954F925F926F927F928F929F92AF9297
:10055000BF92EF92FF920F931F93CF93DF93CDB78C
:10056000DEB72E970FB6F894DEBF0FBECDBF4B019E
:100570005C0129873A874B875C8781E090E0A0E0A7
:10058000B0E08D839E83AF83B88789859A85AB85DC
:10059000BC850097A105B10509F48AC080FF42C05F
:1005A000240135011E861D868D819E81AF81B8850F
:1005B00089839A83AB83BC831D821E821F82188627
:1005C000998190FF10C06D817E818F819885640D27
:1005D000751D861D971DA80197010E947C086D83DB
:1005E0007E838F839887C301B201660F771F881FB0
:1005F000991FA80197010E947C082B013C01898169
:100600009A81AB81BC81B695A7959795879589838B
:100610009A83AB83BC83AD85BE851196BE87AD87BB
:10062000909771F62401350189829A82AB82BC824F
:100630001E861D86812C912C5401B981B0FF0CC0FF
:10064000C301B201680D791D8A1D9B1DA801970188
:100650000E947C084B015C01C301B201660F771F49
:10066000881F991FA80197010E947C082B013C015B
:1006700089819A81AB81BC81B695A795979587951D
:1006800089839A83AB83BC83AD85BE851196BE8773
:10069000AD87909791F689859A85AB85BC85B6958F
:1006A000A7959795879589879A87AB87BC876DCFE4
:1006B0006D817E818F8198852E960FB6F894DEBF6E
:1006C0000FBECDBFDF91CF911F910F91FF90EF90A3
:1006D000BF90AF909F908F907F906F905F904F9062
:1006E00008951F93CF93DF93172FD82FC92F862FED
:1006F000660F990B0E94FE01812F110F990B0E942A
:10070000FE018D2FDD0F990B0E94FE018C2FCC0F67
:10071000990BDF91CF911F910C94FE011F920F92C4
:100720000FB60F9211240BB60F922F933F938F9316
:100730009F93EF93FF93209167023091680280911D
:10074000690290916A022817390731F480913101CA
:100750008F7D8093310114C0E0916902F0916A02AB
:10076000E95DFD4F20818091690290916A020196B6
:100770008F73992790936A028093690220933601C0
:10078000FF91EF919F918F913F912F910F900BBE11
:100790000F900FBE0F901F9018951F920F920FB6DB
:1007A0000F9211240BB60F922F933F938F939F9329
:1007B000EF93FF932091EF023091F0028091F102CC
:1007C0009091F2022817390731F48091D1008F7D82
:1007D0008093D10014C0E091F102F091F202E15552
:1007E000FD4F20818091F1029091F20201968F736A
:1007F00099279093F2028093F1022093D600FF9103
:10080000EF919F918F913F912F910F900BBE0F9081
:100810000FBE0F901F9018951F920F920FB60F9258
:1008200011240BB60F922F933F938F939F93EF93C7
:10083000FF932091990330919A0380919B039091AB
:100840009C032817390731F48091C9008F7D80936C
:10085000C90014C0E0919B03F0919C03E75AFC4F40
:10086000208180919B0390919C0301968F7399271F
:1008700090939C0380939B032093CE00FF91EF9174
:100880009F918F913F912F910F900BBE0F900FBEB4
:100890000F901F9018951F920F920FB60F92112470
:1008A0000BB60F922F933F938F939F93EF93FF93EA
:1008B0002091430430914404809145049091460472
:1008C0002817390731F48091C1008F7D8093C100D2
:1008D00014C0E0914504F0914604ED5FFB4F208188
:1008E000809145049091460401968F7399279093C7
:1008F0004604809345042093C600FF91EF919F9199
:100900008F913F912F910F900BBE0F900FBE0F90C4
:100910001F9018951F920F920FB60F9211240BB6CD
:100920000F922F933F934F935F936F937F938F9388
:100930009F93AF93BF93EF93FF938091300182FD1C
:1009400007C0809136016BE672E00E945F0202C030
:1009500080913601FF91EF91BF91AF919F918F915F
:100960007F916F915F914F913F912F910F900BBEAF
:100970000F900FBE0F901F9018951F920F920FB6F9
:100980000F9211240BB60F922F933F934F935F93C7
:100990006F937F938F939F93AF93BF93EF93FF9347
:1009A0008091D00082FD07C08091D60063EF72E095
:1009B0000E945F0202C08091D600FF91EF91BF912B
:1009C000AF919F918F917F916F915F914F913F91E7
:1009D0002F910F900BBE0F900FBE0F901F90189588
:1009E0001F920F920FB60F9211240BB60F922F93F6
:1009F0003F934F935F936F937F938F939F93AF93A7
:100A0000BF93EF93FF938091C80082FD07C0809150
:100A1000CE006DE973E00E945F0202C08091CE00BB
:100A2000FF91EF91BF91AF919F918F917F916F91C6
:100A30005F914F913F912F910F900BBE0F900FBE82
:100A40000F901F9018951F920F920FB60F921124BE
:100A50000BB60F922F933F934F935F936F937F93B8
:100A60008F939F93AF93BF93EF93FF938091C000B9
:100A700082FD07C08091C60067E474E00E945F02B7
:100A800002C08091C600FF91EF91BF91AF919F91FD
:100A90008F917F916F915F914F913F912F910F9027
:100AA0000BBE0F900FBE0F901F9018951F920F92C4
:100AB0000FB60F9211242F933F938F939F93AF9371
:100AC000BF938091230290912402A0912502B091BE
:100AD00026023091220223E0230F2D3720F40196C5
:100AE000A11DB11D05C026E8230F0296A11DB11D51
:100AF000209322028093230290932402A093250244
:100B0000B093260280911E0290911F02A0912002B4
:100B1000B09121020196A11DB11D80931E029093F8
:100B20001F02A0932002B0932102BF91AF919F9129
:100B30008F913F912F910F900FBE0F901F9018959E
:100B40000F931F93CF93DF93009779F0FC010190EF
:100B50000020E9F73197AF01481B590BBC018BE826
:100B600094E00E947902EC0102C0C0E0D0E08DE088
:100B70000E9403028C018AE00E940302C00FD11F71
:100B80008C0F9D1FDF91CF911F910F910895CF92F0
:100B9000DF92EF92FF92EBE8F4E01382128288EE8C
:100BA000C82E83E0D82EE12CF12CC482D582E682B7
:100BB000F78264E072E07183608387E494E0958754
:100BC000848783E094E09787868785EC90E0918B1B
:100BD000808B84EC90E0938B828B80EC90E0958B03
:100BE000848B81EC90E0978B868B82EC90E0918FE8
:100BF000808F86EC90E0938F828F44E0448F33E0C7
:100C0000358F27E0268F95E0978F81E080A3E1EE76
:100C1000F3E013821282C482D582E682F782718366
:100C20006083ADE9B3E0B587A487A9E5B3E0B787F2
:100C3000A687ADECB0E0B18BA08BACECB0E0B38B91
:100C4000A28BA8ECB0E0B58BA48BA9ECB0E0B78B7D
:100C5000A68BAAECB0E0B18FA08FAEECB0E0B38F62
:100C6000A28F448F358F268F978F80A3E7E3F3E021
:100C700013821282C482D582E682F78271836083F6
:100C8000A3EFB2E0B587A487AFEAB2E0B787A68743
:100C9000A5EDB0E0B18BA08BA4EDB0E0B38BA28B3F
:100CA000A0EDB0E0B58BA48BA1EDB0E0B78BA68B27
:100CB000A2EDB0E0B18FA08FA6EDB0E0B38FA28F10
:100CC000448F358F268F978F80A3EDEAF4E013824F
:100CD0001282C482D582E682F782718360836BE6DA
:100CE00072E07587648767E272E07787668765E3FD
:100CF00071E0718B608B64E371E0738B628B60E3F6
:100D000071E0758B648B61E371E0778B668B62E3D6
:100D100071E0718F608F66E371E0738F628F448F33
:100D2000358F268F978F80A3FF90EF90DF90CF9025
:100D30000895CF93DF93CDB7DEB72C970FB6F89415
:100D4000DEBF0FBECDBF789484B5826084BD84B50C
:100D5000816084BD85B5826085BD85B5816085BDB6
:100D600080916E00816080936E001092810080916E
:100D700081008260809381008091810081608093F6
:100D80008100809180008160809380008091B1001B
:100D900084608093B1008091B00081608093B00046
:100DA0008091910082608093910080919100816098
:100DB0008093910080919000816080939000809159
:100DC000A10082608093A1008091A1008160809346
:100DD000A1008091A00081608093A00080912101FA
:100DE00082608093210180912101816080932101A3
:100DF0008091200181608093200180917A0084603D
:100E000080937A0080917A00826080937A0080914A
:100E10007A00816080937A0080917A008068809364
:100E20007A001092C10003E012E0F8012491EDEB8A
:100E3000F1E084918823C9F090E0880F991FFC01AC
:100E4000E458FE4FA591B491FC01EE59FE4F459137
:100E500054913FB7F8949C91822F809598239C934E
:100E6000DA019C9189238C933FBF8BE894E00E9428
:100E700075018DEA94E00E947501E9E4F2E0849145
:100E8000F8010491EDEBF1E0F491F983FF2309F40B
:100E900061C0882309F451C090E0FC013197E13131
:100EA000F10508F04AC08827EE58FF4F8F4F0C9489
:100EB0009E08809180008F7703C0809180008F7D95
:100EC000809380003AC084B58F7702C084B58F7D4F
:100ED00084BD33C08091B0008F7703C08091B00093
:100EE0008F7D8093B00029C0809190008F7707C0DC
:100EF000809190008F7D03C080919000877F8093C8
:100F000090001BC08091A0008F7707C08091A00047
:100F10008F7D03C08091A000877F8093A0000DC0CB
:100F2000809120018F7707C0809120018F7D03C0C1
:100F300080912001877F809320012981E22FF0E0BA
:100F4000EE0FFF1FEA56FE4FA591B4918C91082336
:100F500009F0AEC080E192E00E94A00587E59BE425
:100F6000A1E0B0E089879A87AB87BC8723E935E9A0
:100F700040E050E02D833E834F83588725EF422E7B
:100F800024E7522E66246394712C37E0832E912C33
:100F9000A12CB12C8BE894E00E944F021816190680
:100FA00094F58BE894E00E9413029C01990F440B86
:100FB000550B29833A834B835C832D3031054105E2
:100FC000510579F48AE00E94030283017201A501B0
:100FD00094016AE070E080E090E00E94A1020E942B
:100FE000710389810E9403023981632F330F770BCC
:100FF000880B990B83017201A50194010E94A10243
:101000000E947103C7CF8DEA94E00E944F020497BB
:101010000CF28DEA94E00E9413029A8389838DEA90
:1010200094E00E9413028C018DEA94E00E94130266
:10103000012E000C220B330BCC24D02EE12EF22EED
:10104000092E000CAA0BBB0BDC01992788279701FE
:101050008601082B192B2A2B3B2B49815A816A01C7
:10106000550FEE08FF08C02AD12AE22AF32A8DEA9A
:1010700094E00E941302092E000CAA0BBB0BB82FA0
:10108000AA2799278827BC01CD016C297D298E29A3
:101090009F29E984FA840B851C852D813E814F812F
:1010A00058850E94A1028BE894E00E94BC0172CF97
:1010B00087E192E00E94A00585EF94E7A1E0B0E00F
:1010C00089879A87AB87BC872FED39E640E050E0EF
:1010D0002D833E834F83588787E5482E8BE4582E17
:1010E00066246394712C9BE0892E912CA12CB12C49
:1010F00051CFF8940C94A608A1E21A2EAA1BBB1B90
:10110000FD010DC0AA1FBB1FEE1FFF1FA217B307D3
:10111000E407F50720F0A21BB30BE40BF50B661FE9
:10112000771F881F991F1A9469F7609570958095AD
:1011300090959B01AC01BD01CF010895EE0FFF1FFB
:10114000881F8BBF0790F691E02D1994F894FFCF7C
:1011500000000000BC0179024F02130233020802B2
:0E116000436C69656E740053657276657200AB
:00000001FF
