:100000000C9435010C9466010C9466010C94660105
:100010000C9466010C9466010C9466010C946601C4
:100020000C9466010C9466010C9466010C946601B4
:100030000C9466010C9466010C9466010C946601A4
:100040000C9466010C9466010C9466010C94660194
:100050000C9466010C9466010C9466010C940305E3
:100060000C9466010C94D0040C94F8030C94660173
:100070000C9466010C9466010C9466010C94660164
:100080000C9466010C9466010C9466010C94660154
:100090000C949D040C94B9030C9466010C946601B5
:1000A0000C9466010C9466010C9466010C94660134
:1000B0000C9466010C9466010C9466010C94660124
:1000C0000C9466010C9466010C9466010C946A040D
:1000D0000C947A030C9466010C9437040C943B0343
:1000E0000C9466018102840277027B02BB028802C3
:1000F0008C02920296029A02A002A402A802BB02FB
:10010000AE02B202B6020C94A4020C94A8020C94A3
:1001100069010C94AE020C94C8010C949A020C94E0
:1001200077020C94A0020C94B6020C9484020C94F6
:10013000B2020C94E8010C942E020C94BB020C94B5
:1001400092020C944D050C94BD010C9496020C94F3
:100150007B020C948C020C9488020C9481020C9407
:10016000040200002100240027002A002D00300096
:10017000330001010000040107010A010000220010
:10018000250028002B002E00310034000201000061
:10019000050108010B010505050507050808080804
:1001A000020202020A0A080804040404010101010F
:1001B000010101010303030303030303040707070A
:1001C0000C0C0C0C0C0C0C0C0202020206060606AF
:1001D000060606060B0B0B0B0B0B0B0B010210207C
:1001E000200808102040102040800201020108046D
:1001F0000201010204081020408080402010080401
:100200000201800402018040201008040201080459
:10021000020101020408102040800102040810209D
:1002200040800000090A02080B0C0D0706030401B8
:1002300000000000000000000000000000000000BE
:10024000000000000000000000000000000011108D
:100250000F0000000000000000000000000000008F
:1002600000000000000000004D0511241FBECFEF6C
:10027000D1E2DEBFCDBF00E00CBF12E0A0E0B2E0F3
:10028000E2E6FFE000E00BBF02C007900D92A03352
:10029000B107D9F724E0A0E3B2E001C01D92A13E6E
:1002A000B207E1F711E0C5E3D1E000E006C0219715
:1002B0000109802FFE010E94A707C433D10780E007
:1002C0000807A9F70E941F060C9482070C940000EF
:1002D00008950F931F93CF93DF93FC01A685B785F5
:1002E0008D01005C1F4FE8018881998101968F7311
:1002F0009927AD014E5B5F4FEA01288139812817AC
:100300003907D1F3E80128813981A20FB31F6C931B
:10031000A685B785A05CBF4F11969C938E93A68946
:10032000B7892C9181E090E0078C02C0880F991F5B
:100330000A94E2F7822B8C9381E081A30488F589EB
:10034000E02D80818064808381E090E0DF91CF9117
:100350001F910F910895CF93DF936DE08FEB94E0A1
:100360000E946901EC016AE08FEB94E00E94690150
:100370008C0F9D1FDF91CF910895FC0181A18823EF
:1003800029F0A489B5898C9186FFFBCF11A208952D
:10039000FC01A485B585FD01E05CFF4F2081318122
:1003A0003296808191812817390779F08081918177
:1003B000A80FB91F8C91208131812F5F3F4F2F7380
:1003C00033273183208390E008958FEF9FEF0895C6
:1003D000DC011C96ED91FC911D97DF01A05CBF4FE5
:1003E0002D913C91119712968D919C911197281700
:1003F000390739F08D919C91E80FF91F808190E0C9
:1004000008958FEF9FEF0895FC0124853585F9014C
:10041000E05CFF4F80819181329620813181821B87
:10042000930B8F7399270895FB01E05CFF4F2081A8
:100430003181DB01AE5BBF4F4D915C912F5F3F4F30
:100440002F7333274217530741F040815181DB015D
:10045000A40FB51F8C93318320830895CF92DF9230
:10046000EF92FF920F931F93CF93DF936C01EB01F9
:100470007B01E40EF51E00E010E0CE15DF0561F013
:100480006991D601ED91FC910190F081E02DC601BA
:100490001995080F191FF1CFC801DF91CF911F9156
:1004A0000F91FF90EF90DF90CF900895362F90E05E
:1004B000FC01EE5DFD4F4491FC01E452FE4F24919E
:1004C000FC01EA56FE4F9491992309F468C0442335
:1004D00009F451C050E0FA013197E131F10508F01B
:1004E0004AC08827EE58FF4F8F4F0C94A707809182
:1004F00080008F7703C0809180008F7D8093800083
:100500003AC084B58F7702C084B58F7D84BD33C077
:100510008091B0008F7703C08091B0008F7D809371
:10052000B00029C0809190008F7707C08091900023
:100530008F7D03C080919000877F809390001BC0C7
:100540008091A0008F7707C08091A0008F7D03C0AD
:100550008091A000877F8093A0000DC08091200132
:100560008F7707C0809120018F7D03C0809120018B
:10057000877F80932001E92FF0E0EE0FFF1FE45802
:10058000FE4FA591B4919FB7F894311104C08C919E
:100590002095282302C0EC912E2B2C939FBF089509
:1005A000009769F0FC0101900020E9F73197AF0155
:1005B000481B590BBC018FEB94E00C942E0280E099
:1005C00090E00895CF93DF930E94D002EC010E9447
:1005D000AB018C0F9D1FDF91CF9108958F929F9259
:1005E000AF92BF92EF92FF920F931F93CF93DF933F
:1005F000CDB7DEB7A1970FB6F894DEBF0FBECDBF63
:10060000162F042F19A2423008F40AE07E0121E2DD
:10061000E20EF11C802E912CA12CB12C612FA50192
:1006200094010E948507029F1019112481E0E81AA5
:10063000F1081A3014F4105D01C0195CF701108341
:10064000122F732FCA01232B242B252B39F7C70117
:100650000E94D002A1960FB6F894DEBF0FBECDBFA8
:10066000DF91CF911F910F91FF90EF90BF90AF90CE
:100670009F908F9008951F920F920FB60F921124A2
:100680000BB60F922F933F938F939F93EF93FF930C
:100690002091790230917A0280917B0290917C02C4
:1006A0002817390731F4809131018F7D8093310112
:1006B00014C0E0917B02F0917C02E75CFD4F208149
:1006C00080917B0290917C0201968F739927909381
:1006D0007C0280937B0220933601FF91EF919F91E2
:1006E0008F913F912F910F900BBE0F900FBE0F90E7
:1006F0001F9018951F920F920FB60F9211240BB6F0
:100700000F922F933F938F939F93EF93FF9320919B
:100710002303309124038091250390912603281709
:10072000390731F48091D1008F7D8093D10014C0BE
:10073000E0912503F0912603ED51FD4F208180913A
:1007400025039091260301968F7399279093260392
:10075000809325032093D600FF91EF919F918F9175
:100760003F912F910F900BBE0F900FBE0F901F90D7
:1007700018951F920F920FB60F9211240BB60F927D
:100780002F933F938F939F93EF93FF932091CD03EC
:100790003091CE038091CF039091D0032817390771
:1007A00031F48091C9008F7D8093C90014C0E0911D
:1007B000CF03F091D003E357FC4F20818091CF030A
:1007C0009091D00301968F7399279093D0038093D3
:1007D000CF032093CE00FF91EF919F918F913F9196
:1007E0002F910F900BBE0F900FBE0F901F9018957A
:1007F0001F920F920FB60F9211240BB60F922F93E8
:100800003F938F939F93EF93FF93209177043091C1
:1008100078048091790490917A042817390731F48B
:100820008091C1008F7D8093C10014C0E091790454
:10083000F0917A04E95CFB4F2081809179049091DA
:100840007A0401968F73992790937A0480937904A0
:100850002093C600FF91EF919F918F913F912F912F
:100860000F900BBE0F900FBE0F901F9018951F9208
:100870000F920FB60F9211240BB60F922F933F9346
:100880004F935F936F937F938F939F93AF93BF9398
:10089000EF93FF938091300182FD07C08091360174
:1008A0006DE772E00E94140202C080913601FF9150
:1008B000EF91BF91AF919F918F917F916F915F91D8
:1008C0004F913F912F910F900BBE0F900FBE0F9045
:1008D0001F9018951F920F920FB60F9211240BB60E
:1008E0000F922F933F934F935F936F937F938F93C9
:1008F0009F93AF93BF93EF93FF938091D00082FDBE
:1009000007C08091D60067E273E00E94140202C023
:100910008091D600FF91EF91BF91AF919F918F9100
:100920007F916F915F914F913F912F910F900BBEEF
:100930000F900FBE0F901F9018951F920F920FB639
:100940000F9211240BB60F922F933F934F935F9307
:100950006F937F938F939F93AF93BF93EF93FF9387
:100960008091C80082FD07C08091CE0061ED73E0E8
:100970000E94140202C08091CE00FF91EF91BF91BE
:10098000AF919F918F917F916F915F914F913F9127
:100990002F910F900BBE0F900FBE0F901F901895C8
:1009A0001F920F920FB60F9211240BB60F922F9336
:1009B0003F934F935F936F937F938F939F93AF93E7
:1009C000BF93EF93FF938091C00082FD07C0809199
:1009D000C6006BE774E00E94140202C08091C6005A
:1009E000FF91EF91BF91AF919F918F917F916F9107
:1009F0005F914F913F912F910F900BBE0F900FBEC3
:100A00000F901F9018951F920F920FB60F921124FE
:100A10002F933F938F939F93AF93BF938091350212
:100A200090913602A0913702B09138023091340291
:100A300023E0230F2D3720F40196A11DB11D05C021
:100A400026E8230F0296A11DB11D20933402809346
:100A5000350290933602A0933702B093380280910A
:100A6000300290913102A0913202B091330201968E
:100A7000A11DB11D8093300290933102A0933202E8
:100A8000B0933302BF91AF919F918F913F912F917E
:100A90000F900FBE0F901F901895CF92DF92EF929C
:100AA000FF92EFEBF4E01382128288EEC82E83E00F
:100AB000D82EE12CF12CC482D582E682F7826EE03A
:100AC00072E0718360838BE794E09587848787E386
:100AD00094E09787868785EC90E0918B808B84ECFF
:100AE00090E0938B828B80EC90E0958B848B81ECF3
:100AF00090E0978B868B82EC90E0918F808F86ECD4
:100B000090E0938F828F44E0448F33E0358F27E06D
:100B1000268F95E0978F81E080A3E5E1F4E01382D2
:100B20001282C482D582E682F78271836083A1ED4E
:100B3000B3E0B587A487ADE8B3E0B787A687ADEC8F
:100B4000B0E0B18BA08BACECB0E0B38BA28BA8EC87
:100B5000B0E0B58BA48BA9ECB0E0B78BA68BAAEC68
:100B6000B0E0B18FA08FAEECB0E0B38FA28F448F16
:100B7000358F268F978F80A3EBE6F3E013821282E6
:100B8000C482D582E682F78271836083A7E2B3E0F4
:100B9000B587A487A3EEB2E0B787A687A5EDB0E03E
:100BA000B18BA08BA4EDB0E0B38BA28BA0EDB0E035
:100BB000B58BA48BA1EDB0E0B78BA68BA2EDB0E016
:100BC000B18FA08FA6EDB0E0B38FA28F448F358F89
:100BD000268F978F80A3E1ECF2E013821282C48209
:100BE000D582E682F782718360836DE772E0758754
:100BF000648769E372E07787668765E371E0718BEC
:100C0000608B64E371E0738B628B60E371E0758BE2
:100C1000648B61E371E0778B668B62E371E0718FC7
:100C2000608F66E371E0738F628F448F358F268FFC
:100C3000978F80A3FF90EF90DF90CF9008957894E6
:100C400084B5826084BD84B5816084BD85B58260D1
:100C500085BD85B5816085BD80916E008160809382
:100C60006E001092810080918100826080938100EB
:100C700080918100816080938100809180008160FB
:100C8000809380008091B10084608093B100809156
:100C9000B00081608093B000809191008260809369
:100CA00091008091910081608093910080919000EB
:100CB0008160809390008091A10082608093A10068
:100CC0008091A10081608093A1008091A00081604B
:100CD0008093A00080912101826080932101809106
:100CE00021018160809321018091200181608093A6
:100CF000200180917A00846080937A0080917A004C
:100D0000826080937A0080917A00816080937A007B
:100D100080917A00806880937A001092C100E091FF
:100D2000D304F091D40481E090E09C010090DF04B2
:100D300002C0220F331F0A94E2F72083E091CF0410
:100D4000F091D0041082E091D104F091D2042FEC04
:100D500020831092E004E091D504F091D604408104
:100D60009C010090DB0402C0220F331F0A94E2F7BB
:100D7000242B2083E091D504F091D60440819C017E
:100D80000090DC0402C0220F331F0A94E2F7242BE8
:100D90002083E091D504F091D60440819C0100901D
:100DA000DD0402C0220F331F0A94E2F7242B2083B4
:100DB000E091D504F091D60420810090DE0402C0B9
:100DC000880F991F0A94E2F78095822380830AE0B6
:100DD00012E0C0E0D2E0DE01888199819927FC0110
:100DE000E452FE4F4491FC01EA56FE4F8491882361
:100DF000A1F090E0880F991FFC01EE59FE4F25915C
:100E00003491FC01E458FE4F859194918FB7F8948A
:100E1000F9019081942B90838FBF229660E08C9192
:100E20000E9456020C171D07B1F6B12C8FEB94E00F
:100E30000E94040218161906CCF78FEB94E00E946A
:100E4000C801C0EDC80FCA30B0F09FE9980F9630C6
:100E500010F4C9EA05C09FEB980F963018F4C9EC5E
:100E6000C80F09C08032A1F08D3091F08AE192E084
:100E70000E94E20212C06C2F0C2E000C770B880B24
:100E8000990B4AE00E94EE020E94AB01BC0E05C025
:100E90008AE292E00E94E202B12C8B2D90E0A0E069
:100EA000B0E04AE0BC01CD010E94EE020E94AB011D
:100EB00000E012E0C0E0D0E0EB2C0B2C000CFF08AF
:100EC000B7010C2E02C0759567950A94E2F76B0185
:100ED00081E0C822DD24F80180810E5F1F4F6C2D58
:100EE0000E945602B601DD0C880B990B4AE00E9465
:100EF000EE022196C530D10519F788E292E00E94F2
:100F0000E20294CFF8940C94AF07A1E21A2EAA1B28
:100F1000BB1BFD010DC0AA1FBB1FEE1FFF1FA217A9
:100F2000B307E407F50720F0A21BB30BE40BF50BA6
:100F3000661F771F881F991F1A9469F7609570952F
:100F4000809590959B01AC01BD01CF010895EE0FF6
:100F5000FF1F881F8BBF0790F691E02D1994F8941E
:020F6000FFCFC1
:100F620009000A000B000C000D00000000006901DE
:100F72002E020402C801E801BD01496E76616C6966
:100F82006420696E707574000A005265736574009E
:00000001FF
