:100000000C9435010C9466010C9466010C94660105
:100010000C9466010C9466010C9466010C946601C4
:100020000C9466010C9466010C9466010C946601B4
:100030000C9466010C9466010C9466010C946601A4
:100040000C9466010C9466010C9466010C94660194
:100050000C9466010C9466010C9466010C94CD041A
:100060000C9466010C949A040C94C2030C946601DF
:100070000C9466010C9466010C9466010C94660164
:100080000C9466010C9466010C9466010C94660154
:100090000C9467040C9483030C9466010C94660121
:1000A0000C9466010C9466010C9466010C94660134
:1000B0000C9466010C9466010C9466010C94660124
:1000C0000C9466010C9466010C9466010C94340443
:1000D0000C9444030C9466010C9401040C940503E5
:1000E0000C9466018F01920185018901C901960175
:1000F0009A01A001A401A801AE01B201B601C90193
:10010000BC01C001C4010C94C4010C94C0010C9446
:1001100021020C94A8010C94B6010C94A0010C943B
:100120002C020C948F010C9485010C9489010C9481
:10013000AE010C944C020C94DF010C9492010C94CF
:1001400017050C94B2010C94BC010C9468020C9439
:1001500092020C94C9010C9496010C949A010C948F
:10016000A40100002100240027002A002D003000F7
:10017000330001010000040107010A010000220010
:10018000250028002B002E00310034000201000061
:10019000050108010B010505050507050808080804
:1001A000020202020A0A080804040404010101010F
:1001B000010101010303030303030303040707070A
:1001C0000C0C0C0C0C0C0C0C0202020206060606AF
:1001D000060606060B0B0B0B0B0B0B0B010210207C
:1001E000200808102040102040800201020108046D
:1001F0000201010204081020408080402010080401
:100200000201800402018040201008040201080459
:10021000020101020408102040800102040810209D
:1002200040800000090A02080B0C0D0706030401B8
:1002300000000000000000000000000000000000BE
:10024000000000000000000000000000000011108D
:100250000F0000000000000000000000000000008F
:100260000000000000000000170511241FBECFEFA2
:10027000D1E2DEBFCDBF00E00CBF12E0A0E0B2E0F3
:10028000ECE3FEE000E00BBF02C007900D92A2324B
:10029000B107D9F724E0A2E2B2E001C01D92A33D6C
:1002A000B207E1F711E0C5E3D1E000E006C0219715
:1002B0000109802FFE010E941407C433D10780E09A
:1002C0000807A9F70E94E9050C9411070C94000097
:1002D000382FEFE2F2E04491E9EEF1E02491E3EA15
:1002E000F1E09491992309F468C0442309F451C0C2
:1002F00050E0FA013197E131F10508F04AC0882752
:10030000EE58FF4F8F4F0C941407809180008F7729
:1003100003C0809180008F7D809380003AC084B5B7
:100320008F7702C084B58F7D84BD33C08091B000CB
:100330008F7703C08091B0008F7D8093B00029C07B
:10034000809190008F7707C0809190008F7D03C0CF
:1003500080919000877F809390001BC08091A000C7
:100360008F7707C08091A0008F7D03C08091A0008F
:10037000877F8093A0000DC0809120018F7707C0F8
:10038000809120018F7D03C080912001877F809321
:100390002001E92FF0E0EE0FFF1FE458FE4FA5917A
:1003A000B4919FB7F894311104C08C912095282303
:1003B00002C0EC912E2B2C939FBF089508950F93AC
:1003C0001F93CF93DF93FC01A685B7858D01005C59
:1003D0001F4FE8018881998101968F739927AD019C
:1003E0004E5B5F4FEA012881398128173907D1F325
:1003F000E80128813981A20FB31F6C93A685B785C8
:10040000A05CBF4F11969C938E93A689B7892C91BF
:1004100081E090E0078C02C0880F991F0A94E2F7F0
:10042000822B8C9381E081A30488F589E02D808163
:100430008064808381E090E0DF91CF911F910F91E4
:100440000895FC0181A1882329F0A489B5898C91A4
:1004500086FFFBCF11A20895FC01A485B585FD019F
:10046000E05CFF4F20813181329680819181281795
:10047000390779F080819181A80FB91F8C91208173
:1004800031812F5F3F4F2F7333273183208390E0DB
:1004900008958FEF9FEF0895DC011C96ED91FC917C
:1004A0001D97DF01A05CBF4F2D913C9111971296D3
:1004B0008D919C9111972817390739F08D919C9156
:1004C000E80FF91F808190E008958FEF9FEF089566
:1004D000FC0124853585F901E05CFF4F8081918125
:1004E000329620813181821B930B8F739927089557
:1004F000FB01E05CFF4F20813181DB01AE5BBF4F30
:100500004D915C912F5F3F4F2F7333274217530755
:1005100041F040815181DB01A40FB51F8C933183E1
:1005200020830895CF92DF92EF92FF920F931F9353
:10053000CF93DF936C01EB017B01E40EF51E00E02D
:1005400010E0CE15DF0561F06991D601ED91FC91C7
:100550000190F081E02DC6011995080F191FF1CF08
:10056000C801DF91CF911F910F91FF90EF90DF9025
:10057000CF9008953FB7F894809127029091280278
:10058000A0912902B0912A0226B5A89B05C02F3F51
:1005900019F00196A11DB11D3FBFBA2FA92F982FA9
:1005A0008827820F911DA11DB11DBC01CD0142E024
:1005B000660F771F881F991F4A95D1F70895CF922C
:1005C000DF92EF92FF92CF93DF936B017C010E9449
:1005D000BA02EB01C114D104E104F10479F00E94E4
:1005E000BA026C1B7D0B683E7340A0F381E0C81A11
:1005F000D108E108F108C851DC4FECCFDF91CF9171
:10060000FF90EF90DF90CF9008951F920F920FB65A
:100610000F9211240BB60F922F933F938F939F93BA
:10062000EF93FF9320916B0230916C0280916D02E9
:1006300090916E022817390731F4809131018F7D36
:100640008093310114C0E0916D02F0916E02E55D7E
:10065000FD4F208180916D0290916E0201968F7303
:10066000992790936E0280936D0220933601FF913B
:10067000EF919F918F913F912F910F900BBE0F9013
:100680000FBE0F901F9018951F920F920FB60F92EA
:1006900011240BB60F922F933F938F939F93EF9359
:1006A000FF932091150330911603809117039091C9
:1006B00018032817390731F48091D1008F7D80937A
:1006C000D10014C0E0911703F0911803EB52FD4FD5
:1006D0002081809117039091180301968F739927B9
:1006E00090931803809317032093D600FF91EF9106
:1006F0009F918F913F912F910F900BBE0F900FBE46
:100700000F901F9018951F920F920FB60F92112401
:100710000BB60F922F933F938F939F93EF93FF937B
:100720002091BF033091C0038091C1039091C20317
:100730002817390731F48091C9008F7D8093C90053
:1007400014C0E091C103F091C203E158FC4F208135
:100750008091C1039091C20301968F739927909362
:10076000C2038093C1032093CE00FF91EF919F912C
:100770008F913F912F910F900BBE0F900FBE0F9056
:100780001F9018951F920F920FB60F9211240BB65F
:100790000F922F933F938F939F93EF93FF9320910B
:1007A000690430916A0480916B0490916C0428175D
:1007B000390731F48091C1008F7D8093C10014C04E
:1007C000E0916B04F0916C04E75DFB4F2081809118
:1007D0006B0490916C0401968F73992790936C042D
:1007E00080936B042093C600FF91EF919F918F91AE
:1007F0003F912F910F900BBE0F900FBE0F901F9047
:1008000018951F920F920FB60F9211240BB60F92EC
:100810002F933F934F935F936F937F938F939F9308
:10082000AF93BF93EF93FF938091300182FD07C098
:10083000809136016FE672E00E94780202C08091DA
:100840003601FF91EF91BF91AF919F918F917F9171
:100850006F915F914F913F912F910F900BBE0F9031
:100860000FBE0F901F9018951F920F920FB60F9208
:1008700011240BB60F922F933F934F935F936F9377
:100880007F938F939F93AF93BF93EF93FF93809149
:10089000D00082FD07C08091D60069E173E00E941C
:1008A000780202C08091D600FF91EF91BF91AF9185
:1008B0009F918F917F916F915F914F913F912F9178
:1008C0000F900BBE0F900FBE0F901F9018951F92A8
:1008D0000F920FB60F9211240BB60F922F933F93E6
:1008E0004F935F936F937F938F939F93AF93BF9338
:1008F000EF93FF938091C80082FD07C08091CE00E6
:1009000063EC73E00E94780202C08091CE00FF91F8
:10091000EF91BF91AF919F918F917F916F915F9177
:100920004F913F912F910F900BBE0F900FBE0F90E4
:100930001F9018951F920F920FB60F9211240BB6AD
:100940000F922F933F934F935F936F937F938F9368
:100950009F93AF93BF93EF93FF938091C00082FD6D
:1009600007C08091C6006DE674E00E94780202C064
:100970008091C600FF91EF91BF91AF919F918F91B0
:100980007F916F915F914F913F912F910F900BBE8F
:100990000F900FBE0F901F9018951F920F920FB6D9
:1009A0000F9211242F933F938F939F93AF93BF93F5
:1009B0008091230290912402A0912502B0912602F9
:1009C0003091220223E0230F2D3720F40196A11D40
:1009D000B11D05C026E8230F0296A11DB11D20936D
:1009E00022028093230290932402A0932502B093C5
:1009F00026028091270290912802A0912902B091AD
:100A00002A020196A11DB11D80932702909328020E
:100A1000A0932902B0932A02BF91AF919F918F9129
:100A20003F912F910F900FBE0F901F901895CF926E
:100A3000DF92EF92FF92E1EBF4E01382128288EEF4
:100A4000C82E83E0D82EE12CF12CC482D582E68218
:100A5000F78264E072E0718360838DE694E09587AD
:100A6000848789E294E09787868785EC90E0918B74
:100A7000808B84EC90E0938B828B80EC90E0958B64
:100A8000848B81EC90E0978B868B82EC90E0918F49
:100A9000808F86EC90E0938F828F44E0448F33E028
:100AA000358F27E0268F95E0978F81E080A3E7E0E0
:100AB000F4E013821282C482D582E682F7827183C7
:100AC0006083A3ECB3E0B587A487AFE7B3E0B78753
:100AD000A687ADECB0E0B18BA08BACECB0E0B38BF3
:100AE000A28BA8ECB0E0B58BA48BA9ECB0E0B78BDF
:100AF000A68BAAECB0E0B18FA08FAEECB0E0B38FC4
:100B0000A28F448F358F268F978F80A3EDE5F3E07A
:100B100013821282C482D582E682F7827183608357
:100B2000A9E1B3E0B587A487A5EDB2E0B787A687B2
:100B3000A5EDB0E0B18BA08BA4EDB0E0B38BA28BA0
:100B4000A0EDB0E0B58BA48BA1EDB0E0B78BA68B88
:100B5000A2EDB0E0B18FA08FA6EDB0E0B38FA28F71
:100B6000448F358F268F978F80A3E3EBF2E01382BB
:100B70001282C482D582E682F782718360836FE637
:100B800072E0758764876BE272E07787668765E35A
:100B900071E0718B608B64E371E0738B628B60E357
:100BA00071E0758B648B61E371E0778B668B62E338
:100BB00071E0718F608F66E371E0738F628F448F95
:100BC000358F268F978F80A3FF90EF90DF90CF9087
:100BD0000895CF93DF93789484B5826084BD84B503
:100BE000816084BD85B5826085BD85B5816085BD28
:100BF00080916E00816080936E00109281008091E0
:100C00008100826080938100809181008160809367
:100C10008100809180008160809380008091B1008C
:100C200084608093B1008091B00081608093B000B7
:100C30008091910082608093910080919100816009
:100C400080939100809190008160809390008091CA
:100C5000A10082608093A1008091A10081608093B7
:100C6000A1008091A00081608093A000809121016B
:100C70008260809321018091210181608093210114
:100C80008091200181608093200180917A008460AE
:100C900080937A0080917A00826080937A008091BC
:100CA0007A00816080937A0080917A0080688093D6
:100CB0007A001092C100E091C504F091C60481E071
:100CC00090E09C010090D10402C0220F331F0A94CF
:100CD000E2F72083E091C104F091C2041082E09118
:100CE000C304F091C4042FEC20831092D204E0914D
:100CF000C704F091C80440819C010090CD0402C05B
:100D0000220F331F0A94E2F7242B2083E091C704BB
:100D1000F091C80440819C010090CE0402C0220FD3
:100D2000331F0A94E2F7242B2083E091C704F0914B
:100D3000C80440819C010090CF0402C0220F331FE1
:100D40000A94E2F7242B2083E091C704F091C804B1
:100D500020810090D00402C0880F991F0A94E2F706
:100D6000809582238083E9EEF1E02491E3EAF1E0CB
:100D70008491882399F090E0880F991FFC01EE5927
:100D8000FE4FA591B491FC01E458FE4F85919491DA
:100D90008FB7F894EC91E22BEC938FBFC8EED3E0C1
:100DA00047E050E060E172E081EB94E00E94920243
:100DB0006DE081EB94E00E94DF016AE081EB94E05A
:100DC0000E94DF0181E00E9468016AEF70E080E02C
:100DD00090E00E94DF0248E050E068E172E081EBC1
:100DE00094E00E9492026DE081EB94E00E94DF01AA
:100DF0006AE081EB94E00E94DF0180E00E946801DC
:100E000066EA7EE080E090E00E94DF02219741F6F2
:100E100081EB94E00E94210280E090E0DF91CF918D
:100E20000895F8940C941C07EE0FFF1F881F8BBFCA
:0C0E30000790F691E02D1994F894FFCF84
:100E3C0000000000DF01920268022C024C02210229
:100E4C004C4544204F4E21004C4544204F464621F2
:020E5C00000094
:00000001FF
