:100000000C94E1000C9412010C9412010C94120156
:100010000C9412010C9412010C9412010C94120114
:100020000C9412010C9412010C9412010C94120104
:100030000C9412010C9412010C9412010C941201F4
:100040000C9412010C9412010C9412010C941201E4
:100050000C9412010C9412010C9412010C9498044B
:100060000C9412010C9465040C948D030C941201F1
:100070000C9412010C9412010C9412010C941201B4
:100080000C9412010C9412010C9412010C941201A4
:100090000C9432040C944E030C9412010C94120133
:1000A0000C9412010C9412010C9412010C94120184
:1000B0000C9412010C9412010C9412010C94120174
:1000C0000C9412010C9412010C9412010C94FF0375
:1000D0000C940F030C9412010C94CC030C94D002DA
:1000E0000C9412010C94C8010C945B010C94E20472
:1000F0000C949D010C94A8010C940E020C94E40144
:1001000000002200250028002B002E0031003400C2
:1001100002010000050108010B010000210024007C
:1001200027002A002D0030003300010100000401E7
:1001300007010A0105050505070508080808020268
:1001400002020A0A08080404040401010101010171
:1001500001010303030303030303040707070C0C54
:100160000C0C0C0C0C0C020202020606060606061B
:1001700006060B0B0B0B0B0B0B0B010210202008C0
:1001800008102040102040800201020108040201F2
:100190000102040810204080804020100804020161
:1001A00080040201804020100804020108040201BA
:1001B0000102040810204080010204081020408041
:1001C000E20411241FBECFEFD1E2DEBFCDBF00E0BD
:1001D0000CBF12E0A0E0B2E0E8E2FDE000E00BBFFF
:1001E00002C007900D92AE34B107D9F724E0AEE417
:1001F000B2E001C01D92AF3FB207E1F710E0C1EEDF
:10020000D0E000E006C021970109802FFE010E9486
:100210008A06C03ED10780E00807A9F70E94B4050E
:100220000C9487060C940000FC01A489B58981E038
:1002300090E09C0100A002C0220F331F0A94E2F755
:100240002C93A089B1891C92A289B3892FEC2C939D
:1002500011A2A689B7894C919C01048C02C0220F7F
:10026000331F0A94E2F7242B2C93A689B7894C916B
:100270009C01058C02C0220F331F0A94E2F7242B45
:100280002C93A689B7894C919C01068C02C0220F41
:10029000331F0A94E2F7242B2C93A689B7892C915B
:1002A000078C02C0880F991F0A94E2F78095822379
:1002B0008C93089508950F931F93CF93DF93FC01C0
:1002C000A685B7858D01005C1F4FE8018881998163
:1002D00001968F739927AD014E5B5F4FEA0128812C
:1002E000398128173907D1F3E80128813981A20F14
:1002F000B31F6C93A685B785A05CBF4F11969C93E6
:100300008E93A689B7892C9181E090E0078C02C07A
:10031000880F991F0A94E2F7822B8C9381E081A3C6
:100320000488F589E02D80818064808381E090E0FD
:10033000DF91CF911F910F910895FC0181A1882336
:1003400029F0A489B5898C9186FFFBCF11A208956D
:10035000FC01A485B585FD01E05CFF4F2081318162
:100360003296808191812817390779F080819181B7
:10037000A80FB91F8C91208131812F5F3F4F2F73C0
:1003800033273183208390E008958FEF9FEF089506
:10039000DC011C96ED91FC911D97DF01A05CBF4F25
:1003A0002D913C91119712968D919C911197281740
:1003B000390739F08D919C91E80FF91F808190E009
:1003C00008958FEF9FEF0895FC0124853585F9018D
:1003D000E05CFF4F80819181329620813181821BC8
:1003E000930B8F7399270895FB01E05CFF4F2081E9
:1003F0003181DB01AE5BBF4F4D915C912F5F3F4F71
:100400002F7333274217530741F040815181DB019D
:10041000A40FB51F8C93318320830895CF92DF9270
:10042000EF92FF920F931F93CF93DF936C01EB0139
:100430007B01E40EF51E00E010E0CE15DF0561F053
:100440006991D601ED91FC910190F081E02DC601FA
:100450001995080F191FF1CFC801DF91CF911F9196
:100460000F91FF90EF90DF90CF9008953FB7F894F1
:1004700080914F0290915002A0915102B09152028E
:1004800026B5A89B05C02F3F19F00196A11DB11DEF
:100490003FBFBA2FA92F982F8827820F911DA11D2A
:1004A000B11DBC01CD0142E0660F771F881F991F67
:1004B0004A95D1F70895CF92DF92EF92FF92CF93B2
:1004C000DF938FB7F894C090D904D090DA04E0900D
:1004D000DB04F090DC048FBF88EEC80E83E0D81EEA
:1004E000E11CF11C8DED94E00E94E4011816190640
:1004F000DCF02FB7F8948091D9049091DA04A091A0
:10050000DB04B091DC042FBF8C159D05AE05BF0543
:1005100058F40E943602EB010E9436026C1B7D0BE0
:10052000683E7340F8F6F8CF8DED94E00E94E40148
:1005300021E0181619060CF020E0822FDF91CF91F0
:10054000FF90EF90DF90CF9008950F931F93CF937C
:10055000DF93009779F0FC0101900020E9F73197D3
:10056000AF01481B590BBC018DED94E00E940E02B7
:100570008C0102C000E010E06DE08DED94E00E947F
:100580005B01EC016AE08DED94E00E945B01C00F1D
:10059000D11F8C0F9D1FDF91CF911F910F91089557
:1005A0001F920F920FB60F9211240BB60F922F933A
:1005B0003F938F939F93EF93FF93209193023091FA
:1005C000940280919502909196022817390731F490
:1005D000809131018F7D8093310114C0E0919502AB
:1005E000F0919602ED5AFD4F2081809195029091F5
:1005F000960201968F7399279093960280939502A5
:1006000020933601FF91EF919F918F913F912F9110
:100610000F900BBE0F900FBE0F901F9018951F925A
:100620000F920FB60F9211240BB60F922F933F9398
:100630008F939F93EF93FF9320913D0330913E035F
:1006400080913F03909140032817390731F480913E
:10065000D1008F7D8093D10014C0E0913F03F091D1
:100660004003E350FD4F208180913F039091400370
:1006700001968F7399279093400380933F032093B3
:10068000D600FF91EF919F918F913F912F910F9005
:100690000BBE0F900FBE0F901F9018951F920F92D8
:1006A0000FB60F9211240BB60F922F933F938F9397
:1006B0009F93EF93FF932091E7033091E80380919C
:1006C000E9039091EA032817390731F48091C900B2
:1006D0008F7D8093C90014C0E091E903F091EA0393
:1006E000E955FC4F20818091E9039091EA0301963E
:1006F0008F7399279093EA038093E9032093CE00A8
:10070000FF91EF919F918F913F912F910F900BBE91
:100710000F900FBE0F901F9018951F920F920FB65B
:100720000F9211240BB60F922F933F938F939F93A9
:10073000EF93FF9320919104309192048091930460
:10074000909194042817390731F48091C1008F7D6E
:100750008093C10014C0E0919304F0919404EF5A87
:10076000FB4F2081809193049091940401968F73A4
:10077000992790939404809393042093C600FF914B
:10078000EF919F918F913F912F910F900BBE0F9002
:100790000FBE0F901F9018951F920F920FB60F92D9
:1007A00011240BB60F922F933F934F935F936F9348
:1007B0007F938F939F93AF93BF93EF93FF9380911A
:1007C000300182FD07C08091360167E972E00E9426
:1007D000F40102C080913601FF91EF91BF91AF917A
:1007E0009F918F917F916F915F914F913F912F9149
:1007F0000F900BBE0F900FBE0F901F9018951F9279
:100800000F920FB60F9211240BB60F922F933F93B6
:100810004F935F936F937F938F939F93AF93BF9308
:10082000EF93FF938091D00082FD07C08091D600A6
:1008300061E473E00E94F40102C08091D600FF9150
:10084000EF91BF91AF919F918F917F916F915F9148
:100850004F913F912F910F900BBE0F900FBE0F90B5
:100860001F9018951F920F920FB60F9211240BB67E
:100870000F922F933F934F935F936F937F938F9339
:100880009F93AF93BF93EF93FF938091C80082FD36
:1008900007C08091CE006BEE73E00E94F40102C0AD
:1008A0008091CE00FF91EF91BF91AF919F918F9179
:1008B0007F916F915F914F913F912F910F900BBE60
:1008C0000F900FBE0F901F9018951F920F920FB6AA
:1008D0000F9211240BB60F922F933F934F935F9378
:1008E0006F937F938F939F93AF93BF93EF93FF93F8
:1008F0008091C00082FD07C08091C60065E974E068
:100900000E94F40102C08091C600FF91EF91BF9157
:10091000AF919F918F917F916F915F914F913F9197
:100920002F910F900BBE0F900FBE0F901F90189538
:100930001F920F920FB60F9211242F933F938F9314
:100940009F93AF93BF938091D9049091DA04A091C3
:10095000DB04B091DC0430914E0223E0230F2D37ED
:1009600020F40196A11DB11D05C026E8230F0296B3
:10097000A11DB11D20934E028093D9049093DA04F7
:10098000A093DB04B093DC0480914F02909150025D
:10099000A0915102B09152020196A11DB11D809308
:1009A0004F0290935002A0935102B0935202BF9114
:1009B000AF919F918F913F912F910F900FBE0F900C
:1009C0001F901895CF92DF92EF92FF92EDEDF4E039
:1009D0001382128288EEC82E83E0D82EE12CF12CEF
:1009E000C482D582E682F78264E072E0718360831C
:1009F00085E994E09587848781E594E097878687E9
:100A000085EC90E0918B808B84EC90E0938B828BD3
:100A100080EC90E0958B848B81EC90E0978B868BBB
:100A200082EC90E0918F808F86EC90E0938F828FA4
:100A300044E0448F33E0358F27E0268F95E0978F91
:100A400081E080A3EFE2F4E013821282C482D582B7
:100A5000E682F78271836083ABEEB3E0B587A4874B
:100A6000A7EAB3E0B787A687ADECB0E0B18BA08B67
:100A7000ACECB0E0B38BA28BA8ECB0E0B58BA48B50
:100A8000A9ECB0E0B78BA68BAAECB0E0B18FA08F39
:100A9000AEECB0E0B38FA28F448F358F268F978F47
:100AA00080A3E5E8F3E013821282C482D582E68255
:100AB000F78271836083A1E4B3E0B587A487ADEFCB
:100AC000B2E0B787A687A5EDB0E0B18BA08BA4ED0F
:100AD000B0E0B38BA28BA0EDB0E0B58BA48BA1ED01
:100AE000B0E0B78BA68BA2EDB0E0B18FA08FA6EDE2
:100AF000B0E0B38FA28F448F358F268F978F80A35E
:100B0000EBEDF2E013821282C482D582E682F78294
:100B10007183608367E972E07587648763E572E0DB
:100B20007787668765E371E0718B608B64E371E0C2
:100B3000738B628B60E371E0758B648B61E371E0B2
:100B4000778B668B62E371E0718F608F66E371E093
:100B5000738F628F448F358F268F978F80A3FF907E
:100B6000EF90DF90CF900895789484B5826084BD33
:100B700084B5816084BD85B5826085BD85B58160A1
:100B800085BD80916E00816080936E00109281001F
:100B900080918100826080938100809181008160DA
:100BA000809381008091800081608093800080919B
:100BB000B10084608093B1008091B0008160809327
:100BC000B0008091910082608093910080919100AB
:100BD000816080939100809190008160809390006B
:100BE0008091A10082608093A1008091A10081602A
:100BF0008093A1008091A00081608093A0008091EB
:100C00002101826080932101809121018160809384
:100C100021018091200181608093200180917A00E0
:100C2000846080937A0080917A00826080937A0059
:100C300080917A00816080937A0080917A00806848
:100C400080937A001092C100E7E8F1E02491E1E49A
:100C5000F1E084918823C1F090E0880F991FFC0196
:100C6000E65EFE4FC591D491FC01E050FF4FA59187
:100C7000B4919FB7F8948881E22FE0958E23888302
:100C80008C91E823EC939FBF8DED94E00E941401BA
:100C90008BED92E00E941401C0E0D0E02097B1F407
:100CA00080E192E00E94A5020E945B028823A1F3EA
:100CB0008DED94E00E94A8018334910569F78DE1E0
:100CC00092E00E94A502C1E0D0E0E8CFC130D1059A
:100CD00041F461E48BED92E00E945B01C2E0D0E060
:100CE000DDCFC230D105D1F60E945B028823A1F28C
:100CF0008DED94E00E94A801833409F3813471F6EC
:100D000083E392E00E94A502C3E0D0E0C7CFF8944D
:100D10000C949206EE0FFF1F881F8BBF0790F69171
:080D2000E02D1994F894FFCFB7
:100D2800000000005B010E02E401A801C8019D015A
:100D38004C697374656E696E672E2E2E005265635A
:100D48006976656420636F6E6E656374696F6E2E75
:100D58002E2E00526563697665642061636B6E6F41
:0E0D6800776C656467656D656E742E2E2E00C7
:00000001FF
