:100000000C9433010C9454010C9454010C9454013D
:100010000C9454010C9454010C9454010C9454010C
:100020000C9454010C9454010C9454010C945401FC
:100030000C9454010C9454010C9454010C945401EC
:100040000C9454010C9454010C9454010C945401DC
:100050000C9454010C9454010C9454010C942502FA
:100060000C9454010C9454010C9454010C945401BC
:100070000C9454010C9454010C9454010C945401AC
:100080000C9454010C9454010C9454010C9454019C
:100090000C9454010C9454010C9454010C9454018C
:1000A0000C9454010C9454010C9454010C9454017C
:1000B0000C9454010C9454010C9454010C9454016C
:1000C0000C9454010C9454010C9454010C9454015C
:1000D0000C9454010C9454010C9454010C9454014C
:1000E0000C9454016D01700163016701A701740153
:1000F00078017E01820186018C0190019401A701A3
:100100009A019E01A2010C9494010C9467010C9435
:100110007E010C9482010C949A010C946D010C9454
:10012000A2010C9463010C948C010C9486010C9434
:1001300070010C9474010C9490010C949E010C9429
:10014000A7010C94780100002100240027002A0058
:100150002D003000330001010000040107010A01F5
:1001600000002200250028002B002E003100340062
:1001700002010000050108010B010000200023001E
:10018000260029002C002F0032000001000003018E
:10019000060109010505050507050808080802020A
:1001A00002020A0A08080404040401010101010111
:1001B00001010303030303030303040707070C0CF4
:1001C0000C0C0C0C0C0C02020202060606060606BB
:1001D00006060B0B0B0B0B0B0B0B01021020200860
:1001E0000810204010204080020102010804020192
:1001F0000102040810204080804020100804020101
:100200008004020180402010080402010804020159
:1002100001020408102040800102040810204080E0
:100220000000090A02080B0C0D0706030401000078
:1002300000000000000000000000000000000000BE
:1002400000000000000000000000000011100F007E
:10025000000000000000000000000000000000009E
:1002600000000000000011241FBECFEFD1E2DEBF6E
:10027000CDBF00E00CBF12E0A0E0B2E0E4E0F7E0A8
:1002800000E00BBF02C007900D92AA30B107D9F76A
:1002900022E0AAE0B2E001C01D92A531B207E1F769
:1002A0000E946F020C9475030C94000090E0FC0116
:1002B0003197E131F10508F04AC08827EE58FF4F29
:1002C0008F4F0C947803809180008F7703C08091CA
:1002D00080008F7D80938000089584B58F7702C061
:1002E00084B58F7D84BD08958091B0008F7703C061
:1002F0008091B0008F7D8093B00008958091900030
:100300008F7707C0809190008F7D03C0809190000F
:10031000877F8093900008958091A0008F7707C019
:100320008091A0008F7D03C08091A000877F809383
:10033000A0000895809120018F7707C0809120014F
:100340008F7D03C080912001877F809320010895D5
:10035000CF93DF93282F30E0F901E05EFD4F8491C9
:10036000F901E652FE4FD491F901EC56FE4FC491CB
:10037000CC2391F081110E945601EC2FF0E0EE0F9A
:10038000FF1FE658FE4FA591B491EC91ED2381E05B
:1003900090E021F480E002C080E090E0DF91CF9116
:1003A00008951F93CF93DF93282F30E0F901E05E8B
:1003B000FD4F8491F901E652FE4FD491F901EC56BC
:1003C000FE4FC491CC23C1F0162F81110E9456011B
:1003D000EC2FF0E0EE0FFF1FE05AFE4FA591B49115
:1003E0009FB7F894111104C08C91D095D82302C006
:1003F000EC91DE2BDC939FBFDF91CF911F9108958D
:100400003FB7F8948091110290911202A0911302CB
:10041000B091140226B5A89B05C02F3F19F0019694
:10042000A11DB11D3FBFBA2FA92F982F8827820F7A
:10043000911DA11DB11DBC01CD0142E0660F771FCA
:10044000881F991F4A95D1F708951F920F920FB6F2
:100450000F9211242F933F938F939F93AF93BF934A
:1004600080910D0290910E02A0910F02B0911002A6
:1004700030910C0223E0230F2D3720F40196A11DAB
:10048000B11D05C026E8230F0296A11DB11D2093C2
:100490000C0280930D0290930E02A0930F02B09372
:1004A00010028091110290911202A0911302B0915A
:1004B00014020196A11DB11D8093110290931202A6
:1004C000A0931302B0931402BF91AF919F918F91AB
:1004D0003F912F910F900FBE0F901F901895789419
:1004E00084B5826084BD84B5816084BD85B5826039
:1004F00085BD85B5816085BD80916E0081608093EA
:100500006E00109281008091810082608093810052
:100510008091810081608093810080918000816062
:10052000809380008091B10084608093B1008091BD
:10053000B00081608093B0008091910082608093D0
:100540009100809191008160809391008091900052
:100550008160809390008091A10082608093A100CF
:100560008091A10081608093A1008091A0008160B2
:100570008093A0008091210182608093210180916D
:10058000210181608093210180912001816080930D
:10059000200180917A00846080937A0080917A00B3
:1005A000826080937A0080917A00816080937A00E3
:1005B00080917A00806880937A001092C100C0E038
:1005C000D2E0DE01888199819927FC01E652FE4F35
:1005D0002491FC01EC56FE4F84918823A1F090E019
:1005E000880F991FFC01EA5BFE4F45915491FC0175
:1005F000E05AFE4F859194918FB7F894FA0190815B
:10060000922B90838FBF229660E08C910E94D10143
:10061000F2E0CA30DF07A9F6E0EEF1E02491EAE962
:10062000F1E084918823C1F090E0880F991FFC01CC
:10063000EA5BFE4FC591D491FC01E05AFE4FA591B3
:10064000B4919FB7F8948881322F309583238883A3
:10065000EC91E22BEC939FBF86E00E94A80190935F
:100660000B0280930A02892BB1F4C0E0D2E0F8803B
:1006700022968F2D0E94A801892B29F461E08F2DED
:100680000E94D10108C060E08F2D0E94D10182E05C
:10069000CA30D80761F70E940002EB0185E0C82E3E
:1006A000D12CE12CF12C0E9400026C1B7D0B683ECA
:1006B0007340C8F3F1E0CF1AD108E108F108C8513E
:1006C000DC4FC114D104E104F10469F780910A02FE
:1006D00090910B02892B09F0BFCF86E00E94A80100
:1006E00090930B0280930A02F1CFF8940C9480034C
:1006F000EE0FFF1F881F8BBF0790F691E02D199416
:04070000F894FFCF9B
:0A07040009000A000B000C000D00B4
:00000001FF
